{"contracts/gasChallenge.sol":{"gasChallenge":{"abi":[{"inputs":[],"name":"getSumOfArray","outputs":[{"internalType":"uint256","name":"","type":"uint256"}],"stateMutability":"view","type":"function"},{"inputs":[],"name":"notOptimizedFunction","outputs":[],"stateMutability":"nonpayable","type":"function"},{"inputs":[],"name":"optimizedFunction","outputs":[],"stateMutability":"nonpayable","type":"function"}],"evm":{"bytecode":{"linkReferences":{},"object":"6080604052604051806101400160405280600160ff168152602001600260ff168152602001600360ff168152602001600460ff168152602001600560ff168152602001600660ff168152602001600760ff168152602001600860ff168152602001600960ff168152602001600a60ff16815250600090600a610082929190610095565b5034801561008f57600080fd5b506100f7565b82600a81019282156100c9579160200282015b828111156100c8578251829060ff169055916020019190600101906100a8565b5b5090506100d691906100da565b5090565b5b808211156100f35760008160009055506001016100db565b5090565b610281806101066000396000f3fe608060405234801561001057600080fd5b50600436106100415760003560e01c806368b5f223146100465780637ce418941461005057806380d2c8031461005a575b600080fd5b61004e610078565b005b6100586100b4565b005b6100626100ec565b60405161006f9190610156565b60405180910390f35b60005b600a8110156100b15760008082600a811061009957610098610171565b5b018190555080806100a9906101cf565b91505061007b565b50565b6000805b600a8110156100e85760008282600a81106100d6576100d5610171565b5b018190555080806001019150506100b8565b5050565b6000806000905060005b600a81101561013557600081600a811061011357610112610171565b5b0154826101209190610217565b9150808061012d906101cf565b9150506100f6565b508091505090565b6000819050919050565b6101508161013d565b82525050565b600060208201905061016b6000830184610147565b92915050565b7f4e487b7100000000000000000000000000000000000000000000000000000000600052603260045260246000fd5b7f4e487b7100000000000000000000000000000000000000000000000000000000600052601160045260246000fd5b60006101da8261013d565b91507fffffffffffffffffffffffffffffffffffffffffffffffffffffffffffffffff820361020c5761020b6101a0565b5b600182019050919050565b60006102228261013d565b915061022d8361013d565b9250828201905080821115610245576102446101a0565b5b9291505056fea2646970667358221220a349c7136acf426ebf40d79cf3268bcbeeca2de8a4e9c81c375336d40bd3a78964736f6c63430008120033","opcodes":"PUSH1 0x80 PUSH1 0x40 MSTORE PUSH1 0x40 MLOAD DUP1 PUSH2 0x140 ADD PUSH1 0x40 MSTORE DUP1 PUSH1 0x1 PUSH1 0xFF AND DUP2 MSTORE PUSH1 0x20 ADD PUSH1 0x2 PUSH1 0xFF AND DUP2 MSTORE PUSH1 0x20 ADD PUSH1 0x3 PUSH1 0xFF AND DUP2 MSTORE PUSH1 0x20 ADD PUSH1 0x4 PUSH1 0xFF AND DUP2 MSTORE PUSH1 0x20 ADD PUSH1 0x5 PUSH1 0xFF AND DUP2 MSTORE PUSH1 0x20 ADD PUSH1 0x6 PUSH1 0xFF AND DUP2 MSTORE PUSH1 0x20 ADD PUSH1 0x7 PUSH1 0xFF AND DUP2 MSTORE PUSH1 0x20 ADD PUSH1 0x8 PUSH1 0xFF AND DUP2 MSTORE PUSH1 0x20 ADD PUSH1 0x9 PUSH1 0xFF AND DUP2 MSTORE PUSH1 0x20 ADD PUSH1 0xA PUSH1 0xFF AND DUP2 MSTORE POP PUSH1 0x0 SWAP1 PUSH1 0xA PUSH2 0x82 SWAP3 SWAP2 SWAP1 PUSH2 0x95 JUMP JUMPDEST POP CALLVALUE DUP1 ISZERO PUSH2 0x8F JUMPI PUSH1 0x0 DUP1 REVERT JUMPDEST POP PUSH2 0xF7 JUMP JUMPDEST DUP3 PUSH1 0xA DUP2 ADD SWAP3 DUP3 ISZERO PUSH2 0xC9 JUMPI SWAP2 PUSH1 0x20 MUL DUP3 ADD JUMPDEST DUP3 DUP2 GT ISZERO PUSH2 0xC8 JUMPI DUP3 MLOAD DUP3 SWAP1 PUSH1 0xFF AND SWAP1 SSTORE SWAP2 PUSH1 0x20 ADD SWAP2 SWAP1 PUSH1 0x1 ADD SWAP1 PUSH2 0xA8 JUMP JUMPDEST JUMPDEST POP SWAP1 POP PUSH2 0xD6 SWAP2 SWAP1 PUSH2 0xDA JUMP JUMPDEST POP SWAP1 JUMP JUMPDEST JUMPDEST DUP1 DUP3 GT ISZERO PUSH2 0xF3 JUMPI PUSH1 0x0 DUP2 PUSH1 0x0 SWAP1 SSTORE POP PUSH1 0x1 ADD PUSH2 0xDB JUMP JUMPDEST POP SWAP1 JUMP JUMPDEST PUSH2 0x281 DUP1 PUSH2 0x106 PUSH1 0x0 CODECOPY PUSH1 0x0 RETURN INVALID PUSH1 0x80 PUSH1 0x40 MSTORE CALLVALUE DUP1 ISZERO PUSH2 0x10 JUMPI PUSH1 0x0 DUP1 REVERT JUMPDEST POP PUSH1 0x4 CALLDATASIZE LT PUSH2 0x41 JUMPI PUSH1 0x0 CALLDATALOAD PUSH1 0xE0 SHR DUP1 PUSH4 0x68B5F223 EQ PUSH2 0x46 JUMPI DUP1 PUSH4 0x7CE41894 EQ PUSH2 0x50 JUMPI DUP1 PUSH4 0x80D2C803 EQ PUSH2 0x5A JUMPI JUMPDEST PUSH1 0x0 DUP1 REVERT JUMPDEST PUSH2 0x4E PUSH2 0x78 JUMP JUMPDEST STOP JUMPDEST PUSH2 0x58 PUSH2 0xB4 JUMP JUMPDEST STOP JUMPDEST PUSH2 0x62 PUSH2 0xEC JUMP JUMPDEST PUSH1 0x40 MLOAD PUSH2 0x6F SWAP2 SWAP1 PUSH2 0x156 JUMP JUMPDEST PUSH1 0x40 MLOAD DUP1 SWAP2 SUB SWAP1 RETURN JUMPDEST PUSH1 0x0 JUMPDEST PUSH1 0xA DUP2 LT ISZERO PUSH2 0xB1 JUMPI PUSH1 0x0 DUP1 DUP3 PUSH1 0xA DUP2 LT PUSH2 0x99 JUMPI PUSH2 0x98 PUSH2 0x171 JUMP JUMPDEST JUMPDEST ADD DUP2 SWAP1 SSTORE POP DUP1 DUP1 PUSH2 0xA9 SWAP1 PUSH2 0x1CF JUMP JUMPDEST SWAP2 POP POP PUSH2 0x7B JUMP JUMPDEST POP JUMP JUMPDEST PUSH1 0x0 DUP1 JUMPDEST PUSH1 0xA DUP2 LT ISZERO PUSH2 0xE8 JUMPI PUSH1 0x0 DUP3 DUP3 PUSH1 0xA DUP2 LT PUSH2 0xD6 JUMPI PUSH2 0xD5 PUSH2 0x171 JUMP JUMPDEST JUMPDEST ADD DUP2 SWAP1 SSTORE POP DUP1 DUP1 PUSH1 0x1 ADD SWAP2 POP POP PUSH2 0xB8 JUMP JUMPDEST POP POP JUMP JUMPDEST PUSH1 0x0 DUP1 PUSH1 0x0 SWAP1 POP PUSH1 0x0 JUMPDEST PUSH1 0xA DUP2 LT ISZERO PUSH2 0x135 JUMPI PUSH1 0x0 DUP2 PUSH1 0xA DUP2 LT PUSH2 0x113 JUMPI PUSH2 0x112 PUSH2 0x171 JUMP JUMPDEST JUMPDEST ADD SLOAD DUP3 PUSH2 0x120 SWAP2 SWAP1 PUSH2 0x217 JUMP JUMPDEST SWAP2 POP DUP1 DUP1 PUSH2 0x12D SWAP1 PUSH2 0x1CF JUMP JUMPDEST SWAP2 POP POP PUSH2 0xF6 JUMP JUMPDEST POP DUP1 SWAP2 POP POP SWAP1 JUMP JUMPDEST PUSH1 0x0 DUP2 SWAP1 POP SWAP2 SWAP1 POP JUMP JUMPDEST PUSH2 0x150 DUP2 PUSH2 0x13D JUMP JUMPDEST DUP3 MSTORE POP POP JUMP JUMPDEST PUSH1 0x0 PUSH1 0x20 DUP3 ADD SWAP1 POP PUSH2 0x16B PUSH1 0x0 DUP4 ADD DUP5 PUSH2 0x147 JUMP JUMPDEST SWAP3 SWAP2 POP POP JUMP JUMPDEST PUSH32 0x4E487B7100000000000000000000000000000000000000000000000000000000 PUSH1 0x0 MSTORE PUSH1 0x32 PUSH1 0x4 MSTORE PUSH1 0x24 PUSH1 0x0 REVERT JUMPDEST PUSH32 0x4E487B7100000000000000000000000000000000000000000000000000000000 PUSH1 0x0 MSTORE PUSH1 0x11 PUSH1 0x4 MSTORE PUSH1 0x24 PUSH1 0x0 REVERT JUMPDEST PUSH1 0x0 PUSH2 0x1DA DUP3 PUSH2 0x13D JUMP JUMPDEST SWAP2 POP PUSH32 0xFFFFFFFFFFFFFFFFFFFFFFFFFFFFFFFFFFFFFFFFFFFFFFFFFFFFFFFFFFFFFFFF DUP3 SUB PUSH2 0x20C JUMPI PUSH2 0x20B PUSH2 0x1A0 JUMP JUMPDEST JUMPDEST PUSH1 0x1 DUP3 ADD SWAP1 POP SWAP2 SWAP1 POP JUMP JUMPDEST PUSH1 0x0 PUSH2 0x222 DUP3 PUSH2 0x13D JUMP JUMPDEST SWAP2 POP PUSH2 0x22D DUP4 PUSH2 0x13D JUMP JUMPDEST SWAP3 POP DUP3 DUP3 ADD SWAP1 POP DUP1 DUP3 GT ISZERO PUSH2 0x245 JUMPI PUSH2 0x244 PUSH2 0x1A0 JUMP JUMPDEST JUMPDEST SWAP3 SWAP2 POP POP JUMP INVALID LOG2 PUSH5 0x6970667358 0x22 SLT KECCAK256 LOG3 0x49 0xC7 SGT PUSH11 0xCF426EBF40D79CF3268BCB 0xEE 0xCA 0x2D 0xE8 LOG4 0xE9 0xC8 SHR CALLDATACOPY MSTORE8 CALLDATASIZE 0xD4 SIGNEXTEND 0xD3 0xA7 DUP10 PUSH5 0x736F6C6343 STOP ADDMOD SLT STOP CALLER "},"methodIdentifiers":{"getSumOfArray()":"80d2c803","notOptimizedFunction()":"68b5f223","optimizedFunction()":"7ce41894"}}}}}